:100000000C9463000C948B000C948B000C948B006C
:100010000C948B000C948B000C948B000C948B0034
:100020000C948B000C948B000C948B000C948B0024
:100030000C948B000C948B000C948B000C948B0014
:100040000C940D060C948B000C94DB050C94B505F8
:100050000C948B000C948B000C948B000C948B00F4
:100060000C9457060C948B0000000000240027001D
:100070002A0000000000250028002B0000000000DE
:1000800023002600290004040404040404040202DA
:100090000202020203030303030301020408102007
:1000A0004080010204081020010204081020000012
:1000B0000008000201000003040700000000000027
:1000C00000007607300B11241FBECFEFD8E0DEBF53
:1000D000CDBF22E0ACE6B1E001C01D92AA3EB2075E
:1000E000E1F711E0A0E0B1E0E2E8FBE102C0059039
:1000F0000D92AC36B107D9F710E0C2E6D0E004C0EB
:100100002197FE010E94B30BC136D107C9F70E94A7
:10011000CE070C94B40D0C9400002091D8023091BD
:10012000D9028217930738F42091D4023091D50276
:100130002115310529F410922A028AE292E00895ED
:10014000820F931F089508950895AF92BF92CF92A2
:10015000DF92EF92FF920F931F93CF93DF936C0187
:100160007B018B01040F151FEB015E01AE18BF0868
:10017000C017D10759F06991D601ED91FC9101901A
:10018000F081E02DC6010995892B79F7C501DF9132
:10019000CF911F910F91FF90EF90DF90CF90BF9084
:1001A000AF900895FC0144815581608171818AED91
:1001B00092E00C94A500FC01538D448D252F30E076
:1001C000842F90E0821B930B541710F0CF96089564
:1001D00001970895FC01918D828D981761F0A28D91
:1001E000AE0FBF2FB11D5D968C91928D9F5F9F7357
:1001F000928F90E008958FEF9FEF0895FC01918D0D
:10020000828D981731F0828DE80FF11D858D90E079
:1002100008958FEF9FEF0895FC01918D228D892F16
:1002200090E0805C9F4F821B91098F7399270895FE
:100230008BE292E00E940C0121E0892B09F420E07E
:10024000822F0895FC01A48DA80FB92FB11DA35AC8
:10025000BF4F2C91848D90E001968F739927848FE6
:10026000A689B7892C93A089B1898C918370806409
:100270008C93938D848D981306C00288F389E02DAA
:1002800080818F7D80830895EF92FF920F931F935B
:10029000CF93DF93EC0181E0888F9B8D8C8D981339
:1002A0001AC0E889F989808185FF15C09FB7F89445
:1002B000EE89FF896083E889F98980818370806491
:1002C00080839FBF81E090E0DF91CF911F910F91DC
:1002D000FF90EF900895F62E0B8D10E00F5F1F4FEB
:1002E0000F731127E02E8C8D8E110CC00FB607FCFA
:1002F000FACFE889F989808185FFF5CFCE010E9488
:100300002201F1CFEB8DEC0FFD2FF11DE35AFF4FD2
:10031000F0829FB7F8940B8FEA89FB898081806215
:10032000CFCFCF93DF93EC01888D8823B9F0AA89D2
:10033000BB89E889F9898C9185FD03C0808186FDA0
:100340000DC00FB607FCF7CF8C9185FFF2CF8081EF
:1003500085FFEDCFCE010E942201E9CFDF91CF9141
:100360000895833081F028F4813099F08230A9F02B
:1003700008958730A9F08830C9F08430B1F48091B5
:1003800080008F7D03C0809180008F7780938000F4
:10039000089584B58F7784BD089584B58F7DFBCF94
:1003A0008091B0008F778093B00008958091B00065
:1003B0008F7DF9CF1F93CF93DF93282F30E0F90182
:1003C000E255FF4F8491F901E656FF4FD491F901B0
:1003D000EA57FF4FC491CC23A9F0162F81110E9438
:1003E000B101EC2FF0E0EE0FFF1FEE58FF4FA5918B
:1003F000B4918FB7F894EC91111108C0D095DE2319
:10040000DC938FBFDF91CF911F910895DE2BF8CF42
:10041000CF93DF9390E0FC01E656FF4F24918A577B
:100420009F4FFC0184918823D1F090E0880F991FA1
:10043000FC01E859FF4FA591B491FC01EE58FF4F24
:10044000C591D49161110EC09FB7F8948C91E22FA1
:10045000E0958E238C932881E223E8839FBFDF9170
:10046000CF9108958FB7F894EC91E22BEC938FBF66
:10047000F6CF3FB7F89480911A0290911B02A09199
:100480001C02B0911D0226B5A89B05C02F3F19F094
:100490000196A11DB11D3FBFBA2FA92F982F882704
:1004A000BC01CD01620F711D811D911D42E0660FDF
:1004B000771F881F991F4A95D1F708958F929F92B1
:1004C000AF92BF92CF92DF92EF92FF924B015C010D
:1004D0000E9439026B017C010E9439026C197D096E
:1004E0008E099F09683E734081059105A8F321E0BC
:1004F000821A9108A108B10888EEC80E83E0D81EC0
:10050000E11CF11C81149104A104B10429F7FF90AE
:10051000EF90DF90CF90BF90AF909F908F90089515
:1005200085ED8093BC008091BC0084FDFCCF1092CF
:10053000240208952091CE01260F3327331F213244
:100540003105ECF420912402FC0190E080E024309D
:1005500069F082E00895A091CE012191AC0142554D
:100560005E4FA40FB52FB11D2C930196861798F3FB
:100570008091CE01680F6093CE0180E0089581E004
:1005800008950895E091280280912702E81730F439
:10059000F0E0E257FE4F808190E008958FEF9FEFEB
:1005A000089590912802809127022FEF3FEF98172E
:1005B00048F4E92FF0E0E257FE4F208130E09F5FE2
:1005C00090932802C90108958091270290912802F2
:1005D000891B990B0895CF92DF92EF92FF920F93B0
:1005E0001F93CF93DF937C01CB018A0120918D0172
:1005F000222389F0EB016B01C40ED51ECC15DD055D
:1006000069F06991D701ED91FC910190F081E02DA5
:10061000C7010995F3CF642F0E949A02C801DF91A8
:10062000CF911F910F91FF90EF90DF90CF900895A1
:10063000CF93DF931F92CDB7DEB7698320918D01F1
:100640002223F9F020912502203258F021E030E0F9
:10065000FC013383228390E080E00F90DF91CF9103
:10066000089580912602E82FF0E0E359FE4F99812A
:1006700090838F5F809326028093250281E090E033
:10068000ECCF61E0CE0101960E949A02F7CFCF93A2
:10069000FC01C48121E020938D01C0936C01109274
:1006A0002602109225028385682B88EC92E00E9436
:1006B000180390912502913208F03FC080912402E6
:1006C0008111FCCF82E08093240281E08093230299
:1006D0008FEF8093F1011092130290931202ADE616
:1006E000B1E0E2EFF1E080E098132FC01092140225
:1006F00080911402CC0FC82BC09314028091220267
:10070000813039F510922202809114028093BB004F
:100710008091BC0083FDF8CF85EC8093BC00809174
:1007200024028230E1F38091F1018F3F31F080911A
:10073000F101803211F08091F101109226021092A5
:10074000250210928D01CF9108952D9121938F5FF5
:10075000CBCF85EEE2CF089590E080E008950F932F
:100760001F93CF938C01C62F0E9447036C2F6460A8
:10077000C8010E9447036C2F6B7FC8010E9447038A
:1007800083EC90E00197F1F7CF911F910F910895BD
:100790000F931F93CF93DF938C01D62FC42F607FCD
:1007A000642B0E94AF0380E1D89FB00111246C2B11
:1007B000C801DF91CF911F910F910C94AF03CF939C
:1007C000DF93CDB7DEB728970FB6F894DEBF0FBE24
:1007D000CDBF98E0E6E0F1E0DE01119601900D92C8
:1007E0009A95E1F79091E302981708F48FEF90E063
:1007F000880F991F21E030E02C0F3D1F820F931FBF
:10080000FC016081606840E08AED92E028960FB6B6
:10081000F894DEBF0FBECDBFDF91CF910C94C8031B
:1008200041E00E94C80381E090E008958F929F927A
:10083000AF92BF920F931F93CF93DF93CDB7DEB7E5
:10084000A1970FB6F894DEBF0FBECDBF19A24230FC
:1008500008F44AE08E010F5D1F4F842E912CB12CBD
:10086000A12CA50194010E94910BE62FB901CA01A8
:10087000EA3044F5E05DD801EE938D01232B242B63
:10088000252B79F790E080E0109769F0FD01019049
:100890000020E9F73197AF014A1B5B0BBD018BE2EA
:1008A00092E00E94A500A1960FB6F894DEBF0FBE9D
:1008B000CDBFDF91CF911F910F91BF90AF909F90CF
:1008C0008F900895E95CD7CFCF92DF92EF92FF929D
:1008D000CF93DF936C01990FEE08FF08F7FE19C064
:1008E0006DE28BE292E00E944401EC0166277727DB
:1008F000CB016C197D098E099F094AE00E941604FC
:100900008C0F9D1FDF91CF91FF90EF90DF90CF90E4
:1009100008954AE0C701B601DF91CF91FF90EF90B3
:10092000DF90CF900C941604FC0180819181009798
:1009300011F00C94550C0895FC0124813581232B72
:1009400039F421E0FB018081882349F020E007C0D1
:10095000808191810E94A40D21E0892BB9F7822F1B
:1009600008950F931F93CF93DF93EC0188819981B2
:10097000009759F02A813B812617370730F081E034
:10098000DF91CF911F910F9108958B016F5F7F4F82
:100990000E94DE0C009759F0998388831B830A8399
:1009A0002C813D81232B59F7FC011082E8CF80E098
:1009B000E7CFEF92FF920F931F93CF93DF93EC015A
:1009C0007B018A01BA010E94B10428813981811119
:1009D00014C02115310519F0C9010E94550C198266
:1009E00018821D821C821B821A82CE01DF91CF9158
:1009F0001F910F91FF90EF9008951D830C83B70115
:100A0000C9010E94AD0DF1CFAF92BF92CF92DF929C
:100A1000EF92FF920F931F93CF93DF93EC016B0143
:100A20005A0179012417350720F48B2D5901E42E42
:100A3000F82E198218821B821A821D821C8250E0B5
:100A400040E06FE471E0CE010E94D904D601149613
:100A50000D911C91A016B10628F5E016F10608F4D8
:100A60008701D601ED91FC911197E00FF11FF08005
:100A700010826D917C916A0D7B1D61157105F1F0FD
:100A8000FB0101900020E9F73197AF01461B570B9E
:100A9000CE010E94D904F60180819181080F191FAF
:100AA000D801FC92CE01DF91CF911F910F91FF9061
:100AB000EF90DF90CF90BF90AF900895888199819B
:100AC000009711F00E94550C198218821D821C8219
:100AD0001B821A82E0CFFF920F931F93CF93DF9375
:100AE00000D0CDB7DEB7FF24F3948BE292E00E94F2
:100AF0000C01892B61F18BE292E00E94EA008A30BE
:100B000019F4F0922902F1CF89831A820091D80258
:100B10001091D9020F5F1F4FB80184ED92E00E943F
:100B2000B104882311F32091D4023091D502809131
:100B3000D8029091D902BE016F5F7F4F820F931F41
:100B40000E94AD0D1093D9020093D802CECF0F9022
:100B50000F90DF91CF911F910F91FF9008950E9408
:100B6000180181110C946B0508951F920F920FB616
:100B70000F9211242F933F934F935F936F937F9323
:100B80008F939F93AF93BF93EF93FF938BE292E08A
:100B90000E942201FF91EF91BF91AF919F918F91A0
:100BA0007F916F915F914F913F912F910F900FBE69
:100BB0000F901F9018951F920F920FB60F9211244D
:100BC0002F938F939F93EF93FF93E0913B02F091CC
:100BD0003C028081E0914102F091420282FD1BC003
:100BE0009081809144028F5F8F732091450282171C
:100BF00041F0E0914402F0E0E55DFD4F958F809378
:100C00004402FF91EF919F918F912F910F900FBE12
:100C10000F901F9018958081F4CF1F920F920FB6FE
:100C20000F9211242F933F938F939F93AF93BF9372
:100C30008091160290911702A0911802B0911902AA
:100C40003091150223E0230F2D3758F50196A11D91
:100C5000B11D209315028093160290931702A09362
:100C60001802B093190280911A0290911B02A09170
:100C70001C02B0911D020196A11DB11D80931A02A4
:100C800090931B02A0931C02B0931D02BF91AF91E1
:100C90009F918F913F912F910F900FBE0F901F90BA
:100CA000189526E8230F0296A11DB11DD2CF1F92E1
:100CB0000F920FB60F9211242F933F934F935F9390
:100CC0006F937F938F939F93AF93BF93EF93FF9314
:100CD0008091B900887F803609F44AC0F0F58832E7
:100CE00009F4A7C018F5803109F49BC0B8F4882333
:100CF00009F4F9C0883009F494C0FF91EF91BF91D5
:100D0000AF919F918F917F916F915F914F913F91A3
:100D10002F910F900FBE0F901F901895883109F4F6
:100D200088C0803251F78093F10114C0803409F4F7
:100D30009DC040F48033B9F38833F9F68093F10114
:100D400085ECB0C0803509F485C0883509F496C0BB
:100D5000883499F60E949002D0CF883909F48CC06B
:100D600038F5883729F050F4883611F0803729F6A5
:100D700083E0809324021092F00157C0883809F470
:100D80007BC0803919F0803809F0B7CF8091F0012D
:100D9000803208F071C0E091F00181E08E0F809305
:100DA000F0018091BB00F0E0E053FE4F80833DC036
:100DB000803B39F0E0F4803A09F479C0883A09F0D0
:100DC0009CCF84E0809324021092CF011092CE0138
:100DD000E0912002F091210209958091CE018111CC
:100DE0000FC081E08093CE011092AE0109C0803C1B
:100DF00009F4A6CF883C09F4A3CF883B09F07DCF46
:100E0000E091CF0181E08E0F8093CF01F0E0E255B9
:100E1000FE4F80818093BB009091CF018091CE01E5
:100E200029C0809114028093BB0085EC8093BC00A4
:100E300064CF9091130280911202981758F5E091B7
:100E4000130281E08E0F80931302F0E0EE50FE4F0C
:100E50008081E9CFE091130281E08E0F809313022D
:100E60008091BB00F0E0EE50FE4F80839091130222
:100E7000809112029817C8F285E8D8CFE09113024A
:100E800081E08E0F809313028091BB00F0E0EE5062
:100E9000FE4F80838091230281115CCF81E080939B
:100EA000220284EA8093BC001092240226CF85ECB3
:100EB0008093BC00109224028091F001803230F4C3
:100EC000E091F001F0E0E053FE4F10826091F001FC
:100ED00070E0E0911E02F0911F0280ED91E0099513
:100EE0001092F0010ACF1092F10134CFEBE2F2E060
:100EF0001382128288EE93E0A0E0B0E084839583B1
:100F0000A683B78322E131E03183208325EC30E0F2
:100F10003587248724EC30E03787268720EC30E0C3
:100F2000318B208B21EC30E0338B228B22EC30E0B4
:100F3000358B248B26EC30E0378B268B118E128E6E
:100F4000138E148EE8ECF2E0138212828483958370
:100F5000A683B78384E291E091838083EAEDF2E097
:100F60001382128286E391E09183808387E28483F7
:100F700080E1808782E08187128688E08387E4EDC4
:100F8000F2E011821082138212821582148250E0E4
:100F900040E06FE471E0CF010C94D904CF93DF936C
:100FA000CDB7DEB764970FB6F894DEBF0FBECDBFE6
:100FB000789484B5826084BD84B5816084BD85B534
:100FC000826085BD85B5816085BD80916E00816040
:100FD00080936E00109281008091810082608093E6
:100FE00081008091810081608093810080918000E8
:100FF0008160809380008091B10084608093B10013
:101000008091B00081608093B00080917A0084600C
:1010100080937A0080917A00826080937A00809138
:101020007A00816080937A0080917A008068809352
:101030007A001092C100109228021092270210929A
:101040002602109225021092240281E0809323024E
:101050001092220261E082E10E94DA0161E083E104
:101060000E94DA018091B9008E7F8093B90080914F
:10107000B9008D7F8093B90088E48093B80085E43F
:101080008093BC0083EA90E0909321028093200239
:1010900084EA90E090931F0280931E021092DF0278
:1010A0008091E302823018F098E09093DF029091F3
:1010B000E402992339F0813029F48091DF028460C1
:1010C0008093DF0262E370E080E090E00E945E02C5
:1010D0006091E5028AED92E00E94470368EE73E0BA
:1010E00080E090E00E945E0260E38AED92E00E9460
:1010F000AF030BE416E4C8010197F1F760E38AED52
:1011000092E00E94AF03C8010197F1F760E38AED16
:1011100092E00E94AF0383E592E00197F1F760E26D
:101120008AED92E00E94AF036091DF02606240E0CE
:101130008AED92E00E94C80384E08093E00240E0E0
:101140006CE08AED92E00E94C80340E061E08AED25
:1011500092E00E94C8030BE31FE1C8010197F1F779
:1011600052E0D52ED092E10240E066E08AED92E0B6
:101170000E94C80340E062E08AED92E00E94C8034A
:10118000C8010197F1F741E150E06EE371E08AEDAB
:1011900092E00E94A500E0913B02F0913C02D082D7
:1011A000E0913702F09138021082E0913902F0911B
:1011B0003A028FEC808310924302E0913F02F0915B
:1011C000400286E08083E0913D02F0913E02808102
:1011D00080618083E0913D02F0913E0280818860D1
:1011E0008083E0913D02F0913E028081806880839F
:1011F000E0913D02F0913E0280818F7D80838E01DF
:101200000F5F1F4F6BE3C62E6FE1D62E8091290230
:10121000882309F41AC21092290224E030E050E039
:1012200040E064ED72E0C8010E94040560E571E0F1
:10123000C8010E949C04B82EC8010E949404BB20DF
:1012400009F444C040E061E08AED92E00E94C803E6
:10125000C6010197F1F72091D8023091D90244E0FC
:1012600050E064ED72E0CE010B960E9404058F857C
:101270009889419708F45FC080E00E94DF0320E175
:1012800030E050E040E0BE01655F7F4FC8010E9442
:101290000405C8010E94D200C8010E94940481E0A4
:1012A0000E94DF032F85388940E150E0BE01655F71
:1012B0007F4FC8010E940405C8010E94D200C801E6
:1012C0000E949404CE010B960E94940424E030E026
:1012D00050E040E064ED72E0C8010E94040565E55D
:1012E00071E0C8010E949C04B82EC8010E949404B9
:1012F000BB20C1F18091D8029091D90201970E9440
:101300008D00FC017080480144E0A42EB12C809136
:10131000D8029091D9020197A816B906A0F4C50188
:101320000E948D00FC018081F40181934F01FFEF49
:10133000AF1ABF0AECCF80E00E94DF03CE010B960C
:101340000E94D200BFCFC8010E94340B61E00E940E
:10135000080228E472123FC0C8010E94340B61E009
:101360000E94DA0124E030E050E040E064ED72E0F9
:10137000C8010E9404056AE571E0C8010E949C044E
:10138000B82EC8010E949404BB2009F48AC04E0103
:10139000EBE08E0E911C34E0A32EB12C3401809131
:1013A000D8029091D902A816B906E8F4C5010E94A6
:1013B0008D007501FFEFEF1AFF0AFC0180818E336B
:1013C00091F0C5010E948D00FC018081F4018193A0
:1013D0004F015701E4CF8CE47812C4CFC8010E94BA
:1013E000340B60E0BDCF58014701801A910AC40157
:1013F0008A0D9B1D2091D8023091D9028217930744
:1014000040F40E948D00FC018081F50181935F0111
:10141000EECFC3010E94340B61E00E940802C801B4
:101420000E94340B5C01C3010E94340B4C0161E04B
:101430000E940802A114B10429F460E0882D0E94E2
:10144000DA012FC0FFEFAF16B10411F461E0F6CF5F
:10145000F401FF27E255FF4FE491E33009F452C055
:1014600050F4E130D1F0E23009F447C020E8A21690
:10147000B10464F7E2CFE73009F44EC0E83009F474
:1014800053C0E43099F7809180008062809380009F
:10149000B0928B00A0928A0004C084B5806884BD9D
:1014A000A7BC25E030E050E040E064ED72E0C80108
:1014B0000E9404056FE571E0C8010E949C04B82EEB
:1014C000C8010E949404BB2009F45AC0480125E0D9
:1014D000A22EB12C8091D8029091D902A816B906FB
:1014E00058F5C5010E948D00FC018081F4018193B3
:1014F0004F01FFEFAF1ABF0AEDCF84B5806284BD04
:10150000A8BCCFCF80918000806880938000B0928B
:101510008900A0928800C5CF8091B0008068809338
:10152000B000A092B300BDCF8091B00080628093E4
:10153000B000A092B400B5CFC8010E94340B60E0A7
:101540000E940802C8010E94340B8E3008F08E50B1
:101550008770806480937C0080917A00806480939F
:101560007A0080917A0086FDFCCF8091780090917E
:1015700079000E9464046AE08BE292E00E944401D8
:1015800025E030E050E040E064ED72E0C8010E94E8
:10159000040565E671E0C8010E949C04B82EC801EC
:1015A0000E949404BB2009F448C0480195E0A92E8C
:1015B000B12C8091D8029091D902A816B90660F496
:1015C000C5010E948D00FC018081F40181934F01CF
:1015D000FFEFAF1ABF0AEDCFC8010E94340B60E0E5
:1015E0000E940802C8010E94340B9C013327F901B4
:1015F000E255FF4F8491F901E656FF4FB490F9018F
:10160000EA57FF4FA490AA2041F181110E94B10135
:10161000EA2DF0E0EE0FFF1FE458FF4FA591B491C3
:10162000EC91BE2281E090E009F480E00E94640425
:101630006AE08BE292E00E94440150E040E06FE4F7
:1016400071E084ED92E00E94D9040E941801882381
:1016500009F4DCCD0E946B05D9CD80E090E0E6CFA7
:1016600084ED92E00C949404FC0188279927E89477
:1016700021912032E9F3293010F02E30C8F32B32BB
:1016800041F02D3239F4689404C00E94520B820F4D
:10169000911D219120532A30C0F31EF4909581951D
:1016A0009F4F08957AE0979F902D879F802D910DF1
:1016B000112408952F923F924F925F926F927F92E2
:1016C0008F929F92AF92BF92CF92DF92EF92FF9252
:1016D0000F931F93CF93DF93CDB7DEB7CA1BDB0BFE
:1016E0000FB6F894DEBF0FBECDBF09942A883988A3
:1016F00048885F846E847D848C849B84AA84B984AA
:10170000C884DF80EE80FD800C811B81AA81B981B5
:10171000CE0FD11D0FB6F894DEBF0FBECDBFED01C9
:101720000895A1E21A2EAA1BBB1BFD010DC0AA1F22
:10173000BB1FEE1FFF1FA217B307E407F50720F03A
:10174000A21BB30BE40BF50B661F771F881F991FB5
:101750001A9469F760957095809590959B01AC01FE
:10176000BD01CF010895EE0FFF1F0590F491E02D0C
:1017700009940F931F93CF93DF938230910510F458
:1017800082E090E0E091E802F091E90230E020E0B0
:10179000B0E0A0E0309799F42115310509F44AC072
:1017A000281B390B24303105D8F58A819B816115BE
:1017B000710589F1FB0193838283FE0111C0408191
:1017C00051810281138148175907E0F048175907E2
:1017D00099F4109761F012960C93129713961C933C
:1017E0003296CF01DF91CF911F910F910895009311
:1017F000E8021093E902F4CF2115310551F04217A8
:10180000530738F0A901DB019A01BD01DF01F8019E
:10181000C1CFEF01F9CF9093E9028093E802CDCFD9
:10182000FE01E20FF31F8193919322503109398316
:101830002883D7CF2091E6023091E702232B41F491
:1018400020910201309103013093E7022093E602D8
:1018500020910001309101012115310541F42DB78E
:101860003EB74091040150910501241B350BE091D6
:10187000E602F091E702E217F307A0F42E1B3F0BFC
:101880002817390778F0AC014E5F5F4F24173507F2
:1018900048F04E0F5F1F5093E7024093E60281939A
:1018A00091939FCFF0E0E0E09CCFCF93DF93009740
:1018B000E9F0FC01329713821282A091E802B09104
:1018C000E902ED0130E020E01097A1F420813181A0
:1018D000820F931F2091E6023091E7022817390703
:1018E00009F061C0F093E702E093E602DF91CF9147
:1018F0000895EA01CE17DF07E8F54A815B819E0172
:1019000041155105B1F7E901FB83EA8349915991EA
:10191000C40FD51FEC17FD0761F4808191810296F9
:10192000840F951FE90199838883828193819B832A
:101930008A83F0E0E0E012968D919C9113970097D6
:10194000B9F52D913C911197CD010296820F931F0D
:101950002091E6023091E7022817390739F63097CF
:1019600051F51092E9021092E802B093E702A093B9
:10197000E602BCCFD383C28340815181840F951F7F
:10198000C817D90761F44E5F5F4F88819981480F6E
:10199000591F518340838A819B81938382832115C0
:1019A000310509F0B0CFF093E902E093E8029ECF51
:1019B000FD01DC01C0CF13821282D7CFB0E0A0E0DE
:1019C000E4EEFCE00C945C0B8C01009751F4CB012D
:1019D0000E94B90B8C01C801CDB7DEB7E0E10C94D1
:1019E000780BFC01E60FF71F9C0122503109E2172A
:1019F000F30708F49DC0D901CD91DC911197C6176A
:101A0000D70798F0C530D10530F3CE01049786177B
:101A1000970708F3C61BD70B2297C193D1936D93F9
:101A20007C93CF010E94550CD6CF5B01AC1ABD0A46
:101A30004C018C0E9D1EA091E802B091E902512C40
:101A4000412CF12CE12C109731F58091E602909118
:101A5000E7028815990509F05CC04616570608F09C
:101A600058C08091000190910101009741F48DB719
:101A70009EB74091040150910501841B950BE81716
:101A8000F90708F055C0F093E702E093E602F90188
:101A900071836083A0CF8D919C91119712966C9069
:101AA000129713967C901397A815B90559F56C01F8
:101AB00042E0C40ED11CCA14DB0420F1AC014A1967
:101AC0005B09DA011296159780F062827382518366
:101AD0004083D9016D937C93E114F10471F0D70137
:101AE0001396FC93EE93129776CF22968C0F9D1F40
:101AF000F90191838083F301EFCFF093E902E09342
:101B0000E80269CF4816590608F42C017D01D3017B
:101B10009ACFCB010E94B90B7C01009749F0AE012E
:101B2000B8010E949B0DC8010E94550C870153CF3C
:101B300010E000E050CFFB01DC0102C001900D92EB
:101B400041505040D8F70895FB01DC018D91019080
:101B500080190110D9F3990B0895FB01DC01019064
:101B60000D920020E1F7089510E0C2E6D0E004C035
:101B7000FE010E94B30B2196C336D107C9F7F89432
:021B8000FFCF95
:101B82000000EA028000000040001400540000003F
:101B920000004401A500DB0091010C01EA00FE00F7
:101BA200000000001803EB02AC03C102E402D10200
:101BB200C202000000001004A500AC03AB03526592
:101BC20061647920746F20636F6E6E6563742100A7
:101BD2005445585400444F555400414F5554004108
:0C1BE2005245414400445245414400007B
:107E0000112484B714BE81FFF0D085E080938100F7
:107E100082E08093C00088E18093C10086E0809377
:107E2000C20080E18093C4008EE0C9D0259A86E02C
:107E300020E33CEF91E0309385002093840096BBD3
:107E4000B09BFECF1D9AA8958150A9F7CC24DD24C4
:107E500088248394B5E0AB2EA1E19A2EF3E0BF2EE7
:107E6000A2D0813461F49FD0082FAFD0023811F036
:107E7000013811F484E001C083E08DD089C08234E0
:107E800011F484E103C0853419F485E0A6D080C0E4
:107E9000853579F488D0E82EFF2485D0082F10E0AE
:107EA000102F00270E291F29000F111F8ED06801E7
:107EB0006FC0863521F484E090D080E0DECF843638
:107EC00009F040C070D06FD0082F6DD080E0C81688
:107ED00080E7D80618F4F601B7BEE895C0E0D1E017
:107EE00062D089930C17E1F7F0E0CF16F0E7DF06D8
:107EF00018F0F601B7BEE89568D007B600FCFDCFD4
:107F0000A601A0E0B1E02C9130E011968C91119780
:107F100090E0982F8827822B932B1296FA010C0160
:107F200087BEE89511244E5F5F4FF1E0A038BF0790
:107F300051F7F601A7BEE89507B600FCFDCF97BE46
:107F4000E89526C08437B1F42ED02DD0F82E2BD052
:107F50003CD0F601EF2C8F010F5F1F4F84911BD097
:107F6000EA94F801C1F70894C11CD11CFA94CF0C13
:107F7000D11C0EC0853739F428D08EE10CD085E9AC
:107F80000AD08FE07ACF813511F488E018D01DD067
:107F900080E101D065CF982F8091C00085FFFCCF94
:107FA0009093C60008958091C00087FFFCCF809118
:107FB000C00084FD01C0A8958091C6000895E0E648
:107FC000F0E098E1908380830895EDDF803219F02E
:107FD00088E0F5DFFFCF84E1DECF1F93182FE3DFCA
:107FE0001150E9F7F2DF1F91089580E0E8DFEE27F6
:047FF000FF270994CA
:027FFE00040479
:0400000300007E007B
:00000001FF
